:100003007D017C00E4FFFE1200467D027C007F013F
:100013007E001200467D037C007F027E00120046B4
:100023007D047C007F037E001200467D057C007FFB
:10003300047E001200467D067C007F057E001200D0
:030043004680BD37
:09007300D3EF9400EE9400401359
:10007C007508027509EFD509FDD508FAEF1F70E771
:01008C001E55
:03008D0080E422EA
:100090003F065B4F666D7D077F6FFEFDFBF7EFDF71
:10004600D2A674902DF58274003CF583E493F58076
:10005600C2A6749A2FF58274003EF583E493F58068
:0D006600D2A77F017E00120073E4F5802216
:030000000200A05B
:0C00A000787FE4F6D8FD758109020003AA
:00000001FF
