:0903C700D3EF9400EE9400401302
:1003D0007510027511EFD511FDD510FAEF1F70E7FA
:0103E0001EFE
:0303E10080E42293
:10040100C2B58F807F057E001203C7D2B47F057EFF
:07041100001203C7C2B42270
:10030E00CFCDCFCECCCE1201C37C007D0A1201C35D
:04031E00ED2430FF9B
:10032200D2B58F807F057E001203C7D2B47F057ECF
:07033200001203C7C2B42250
:1003A9008F0E8D0FE50EB40105E50F148009E50EDA
:0E03B900B4020AE50F243F4480FF1204012223
:1003E400C2A6C2A77F381204017F0C1204017F0643
:0D03F4001204017F011204017F9002040138
:0A0424008B271203A9AF2702032261
:060361008B088A09890ADD
:100367001203A9E4F50BAB08AA09A90A850B827544
:0F0377008300120184FF6007120322050B80E749
:010386002254
:0B02DC007F0A24FFFDE434FFFC7E00DD
:0802E7008E0E8F0F8C108D119B
:1002EF007F017E00E4FBEBC39511E5106480F87489
:0E02FF008098500AAC0EAD0F1201B10B80E8D2
:01030D0022CD
:040387008A0A8B0B48
:10038B001203A9850C0DE50DD394004010E50D1259
:0D039B0002DCAC0AAD0B12030E150D80E95B
:0103A8002232
:040218008A148B15A4
:10021C001203A9C3E51464809480400D7F2B120354
:10022C002285141885151980107F2D120322C3E422
:10023C009515F519E49514F518851617E517D3944B
:10024C00004010E5171202DCAC18AD1912030E15A4
:03025C001780E91F
:01025F00227C
:040260008A1C8B1D4C
:100264001203A9851E1FE51FD39400402EE51F7FAE
:10027400101202DEAC1CAD1DCFCDCFCECCCE120100
:10028400C3EF540FF520C3940AE5205004243080B2
:0B029400022437FF120322151F80CB4D
:01029F00223C
:0402A0008A238B24FE
:1002A4001203A9852526E526D39400402AE52624B1
:1002B400FFFDE434FFFC7F027E001202E7AC23ADB5
:1002C40024CFCDCFCECCCE1201C3EF54012430FFC6
:0702D400120322152680CF62
:0102DB002200
:0A042E0050617373776F72643A0037
:100339001203E47BFF7A04792E7D017F01120361A8
:100349001200038F28E52860F7FB7A00750C027DFF
:08035900017F0212038780E816
:10000300E4F50875B0FE20B4137F14FE1203C73065
:10001300B4FD7F147E001203C775080620B5147F54
:10002300147E001203C730B5FD7F147E001203C790
:1000330075080720B6147F147E001203C730B6FD7F
:100043007F147E001203C775080820B7147F147E3F
:10005300001203C730B7FD7F147E001203C7750873
:100063000975B0FD20B4147F147E001203C730B4A9
:10007300FD7F147E001203C775080A20B5147F1490
:100083007E001203C730B5FD7F147E001203C775CF
:10009300080B20B6147F147E001203C730B6FD7F11
:1000A300147E001203C775080C20B7147F147E005A
:1000B3001203C730B7FD7F147E001203C775080D06
:1000C30075B0FB20B4147F147E001203C730B4FD57
:1000D3007F147E001203C775080E20B5147F147EAB
:1000E300001203C730B5FD7F147E001203C77508E5
:1000F3000F20B6147F147E001203C730B6FD7F14A1
:100103007E001203C775081020B7147F147E0012F7
:1001130003C730B7FD7F147E001203C7750811753E
:10012300B0F720B4147F147E001203C730B4FD7FF0
:10013300147E001203C775081220B5147F147E00C5
:100143001203C730B5FD7F147E001203C775081371
:1001530020B6147F147E001203C730B6FD7F147ED1
:10016300001203C775081420B7147F147E0012030E
:10017300C730B7FD7F147E001203C7750815AF089B
:010183002259
:03000000020418DF
:0C041800787FE4F6D8FD758128020339D6
:10018400BB010CE58229F582E5833AF583E0225030
:1001940006E92582F8E622BBFE06E92582F8E2227A
:0D01A400E58229F582E5833AF583E4932294
:1001B100EF8DF0A4A8F0CF8CF0A428CE8DF0A42E62
:0201C100FE221C
:1001C300BC000BBE0029EF8DF084FFADF022E4CC20
:1001D300F875F008EF2FFFEE33FEEC33FCEE9DECE9
:1001E300984005FCEE9DFE0FD5F0E9E4CEFD22ED2F
:1001F300F8F5F0EE8420D21CFEADF075F008EF2F79
:10020300FFED33FD4007985006D5F0F222C398FD69
:050213000FD5F0EA2206
:00000001FF
