:100069003F065B4F666D7D077F6FFEFDFBF7EFDF98
:09003000D3EF9400EE940040139C
:100039007508027509EFD509FDD508FAEF1F70E7B4
:010049001E98
:03004A0080E4222D
:10000300D2A674692DF58274003CF583E493F580E0
:10001300C2A674732FF58274003EF583E493F580D2
:0D002300D2A77F017E00120030E4F580229C
:10004D007D017C00E4FFFE1200030D7F017E001296
:0C005D0000030D7F027E0012000380E40F
:0300000002007982
:0C007900787FE4F6D8FD75810902004D87
:00000001FF
