:10007C003F065B4F666D7D077F6FFEFDFBF7EFDF85
:10003C00D2A6747C2DF58274003CF583E493F58094
:10004C00C2A674862FF58274003EF583E493F58086
:03005C00D2A72206
:09005F00D3EF9400EE940040136D
:10006800750A02750BEFD50BFDD50AFAEF1F70E77D
:010078001E69
:0300790080E422FE
:10000300E4F508F509E4FBFAAD03AC02AF09AE0869
:1000130012003C7FF47E0112005F0BBB00010AEB70
:10002300640A4A70E30509E50970020508C39406EA
:08003300E5086480948040CDD3
:01003B0022A2
:0300000002008C6F
:0C008C00787FE4F6D8FD75810B020003BC
:00000001FF
