:1002DF0078780069206C6F7665207869616F686F38
:0E02EF006E672100313233343536373839002E
:0303710001140074
:100123001203387B417D017F01120367750C037B4A
:10013300657A007D037F011202BD750C027BBE7AD6
:10014300FF7D077F01120176750C027BA87A007D83
:100153000B7F011201BE750C087BA87A007D017F1D
:10016300021201FE7BFF7A0279DF7D0A7F0212020F
:030173009780FE74
:09031B00D3EF9400EE94004013AE
:100324007512027513EFD513FDD512FAEF1F70E79E
:010334001EAA
:0303350080E4223F
:10035000C2B58F807F057E0012031BD2B47F057E5D
:070360000012031BC2B422CE
:10026C00CFCDCFCECCCE1200427C007D0A12004204
:04027C00ED2430FF3E
:10028000D2B58F807F057E0012031BD2B47F057E1E
:070290000012031BC2B4229F
:1002FD008F108D11E510B40105E511148009E5107D
:0E030D00B4020AE511243F4480FF120350227F
:10033800C2A6C2A77F381203507F0C1203507F0653
:080348001203507F90020350E4
:0A0367008B081202FDAF08020280AD
:060297008B088A09890AA8
:10029D001202FDE4F50BAB08AA09A90A850B8275BC
:0F02AD008300120003FF6007120280050B80E739
:0102BC00221F
:0B023A007F0A24FFFDE434FFFC7E007F
:080245008E108F118C128D1335
:10024D007F017E00E4FBEBC39513E5126480F87427
:0E025D008098500AAC10AD111200300B80E8F2
:01026B002270
:0402BD008A0A8B0B13
:1002C1001202FD850C0DE50DD394004010E50D12D1
:0D02D100023AAC0AAD0B12026C150D80E96B
:0102DE0022FD
:040176008A0A8B0B5B
:10017A001202FDC3E50A64809480400D7F2B1202AF
:10018A0080850A0E850B0F80107F2D120280C3E432
:10019A00950BF50FE4950AF50E850C0DE50DD39434
:1001AA00004010E50D12023AAC0EAD0F12026C15AA
:0301BA000D80E9CC
:0101BD00221F
:0401BE008A0A8B0B13
:1001C2001202FD850C0DE50DD39400402EE50D7F46
:1001D2001012023CAC0AAD0BCFCDCFCECCCE12006A
:1001E20042EF540FF50EC3940AE50E5004243080FA
:0B01F200022437FF120280150D80CBA5
:0101FD0022DF
:0401FE008A0A8B0BD3
:100202001202FD850C0DE50DD39400402AE50D2464
:10021200FFFDE434FFFC7F027E00120245AC0AAD12
:100222000BCFCDCFCECCCE120042EF54012430FF03
:07023200120280150D80CFC0
:0102390022A2
:0300000002009764
:0C009700787FE4F6D8FD7581140200DECD
:10000300BB010CE58229F582E5833AF583E02250B2
:1000130006E92582F8E622BBFE06E92582F8E222FC
:0D002300E58229F582E5833AF583E4932216
:10003000EF8DF0A4A8F0CF8CF0A428CE8DF0A42EE4
:02004000FE229E
:10004200BC000BBE0029EF8DF084FFADF022E4CCA2
:10005200F875F008EF2FFFEE33FEEC33FCEE9DEC6B
:10006200984005FCEE9DFE0FD5F0E9E4CEFD22EDB1
:10007200F8F5F0EE8420D21CFEADF075F008EF2FFB
:10008200FFED33FD4007985006D5F0F222C398FDEC
:050092000FD5F0EA2289
:1000A300020123E493A3F8E493A34003F68001F24F
:1000B30008DFF48029E493A3F85407240CC8C3335E
:1000C300C4540F4420C8834004F456800146F6DF2D
:1000D300E4800B0102040810204080900371E47E49
:1000E300019360BCA3FF543F30E509541FFEE49322
:1000F300A360010ECF54C025E060A840B8E493A3E9
:10010300FAE493A3F8E493A3C8C582C8CAC583CA13
:10011300F0A3C8C582C8CAC583CADFE9DEE780BECB
:010374000088
:00000001FF
